:1000260049747320686F6D65207061676520096982
:100036006E707574206E756D626572206265676993
:100046006E20746573740D0A2000313A73696E6709
:100056006C655F696F5F6D6F64756C65202020321B
:100066003A6D756C74695F696F5F6D6F64756C6509
:1000760020333A383235355F6D6F64756C652020F4
:100086000D0A2000343A6969635F6D6F64756C65AB
:1000960009353A616464615F6D6F64756C65202033
:1000A60009613A726573756C745F646973706C612B
:1000B600790D0A00746573745F73696E676C655FAA
:1000C600494F5F6D6F64756C650D0A2000696E702F
:1000D6007574206E756D62657220626567696E2043
:1000E600746573742020313A72656C61792020330F
:1000F6003A6D6F746F7220343A62757A7A6572203F
:10010600353A4453313842323020713A7175697448
:100116000D0A202000746573745F4D756C74695FF9
:10012600494F5F6D6F64756C650D0A2000696E70CE
:10013600757420313A68633237335F323434203293
:100146003A636875616E62696E20333A31333820DE
:10015600343A4953443134323020353A7374657039
:100166004D6F746F7220713A717569740D0A2000B3
:10017600746573745F383235355F6D6F64756C65A1
:100186000D0A2000696E70757420313A31365F3180
:10019600364C454420323A386C656420333A38414F
:1001A6006E6A69616E20343A384B61696775616EB3
:1001B60020713A717569740D0A00746573745F690C
:1001C60069635F6D6F64756C650D0A2000696E70FA
:1001D600757420313A32346330322020323A50433B
:1001E600463835363320333A736D675F616E6A6918
:1001F600616E20713A717569740D0A200074657319
:10020600745F41445F6D6F64756C650D0A2000690B
:100216006E70757420313A544C4335343920323A75
:100226004144433038303920333A544C4335363123
:1002360020343A4441433038333220713A7175697B
:10024600740D0A2000776972696E672069732061F0
:100256007320666F6C6C6F77733A43345F43545206
:100266004C2D3E50315F373B434F4D312D3E56436B
:10027600433B20434F5554312D3E46335F746573DF
:10028600742E20696E7075743A3120626567696EE6
:1002960020746573740D0A200069662067726565AF
:1002A6006E206C69676874206973206F6E2C2074E9
:1002B60068656E20646576696365206973206F6B77
:1002C600203B656C736520646576696365206261B1
:1002D600640D0A2000746573745F72656C61792021
:1002E600626567696E0D0A2000746573745F6D6FD1
:1002F600746F7220696E7075743A330943345F43C4
:1003060054524C2D3E50315F3720434F4D312D3ED8
:1003160056434320434F5554312D3E45315F435498
:10032600524C0D0A2000746573745F6D6F746F72A2
:1003360020626567696E0D0A2000746573745F62DA
:10034600757A7A657220696E7075743A3420204623
:10035600365F4374726C2D3E50315F370D0A2000B4
:10036600746573745F42757A7A657220626567692F
:100376006E0D0A2000746573745F323733616E64E4
:1003860032343420696E7075743A310D0A20004398
:10039600535F3237332D3E474E442043535F32344A
:1003A600342D3E474E44204A5036362D3E46355F64
:1003B6004A503635204A503130342D3E46355F4A54
:1003C6005038300D0A2000746573745F68633234E8
:1003D600345F686332373320626567696E0D0A20C1
:1003E60000746573745F636875616E62696E206917
:1003F6006E7075743A320D0A200053485F4C442DD6
:100406003E50315F3220434C4B2D3E50315F3320FE
:1004160051482D3E50315F3420204A5033362D3E10
:1004260046355F4A5038300D0A2000412F422D3E96
:1004360050315F3520434C4B2D3E50315F362020E6
:100446004A5034392D3E46355F4A5036350D0A201E
:1004560000746573745F636875616E62696E2062AD
:100466006567696E0D0A2000746573745F313338F1
:1004760020696E7075743A330D0A2000412D3E5086
:10048600315F3220422D3E50315F3320432D3E50A6
:10049600315F342047312D3E564343204732412FAA
:1004A6004732422D3E474E44204A5033352D3E4674
:1004B600355F4A5036350D0A2000746573745F3116
:1004C600333820626567696E0D0A2000746573749F
:1004D6005F386C656420696E7075743A3220204608
:1004E600355F4A5036352D3E42365F4A5035360D19
:1004F6000A2000746573745F386C656420626567F2
:10050600696E0D0A2000746573745F38416E6A69FE
:10051600616E20696E7075743A332046355F4A50B5
:1005260037342D3E42365F4A5035332046355F4AD2
:100536005036352D3E42365F4A503536200D0A205C
:1005460000746573745F38416E6A69616E20626516
:1005560067696E0D0A2000746573745F384B6169B4
:100566006775616E20696E7075743A342046355F22
:100576004A5038302D3E42365F4A50353320463594
:100586005F4A5036352D3E42365F4A503536200D8D
:100596000A2000746573745F384B61696775616E14
:1005A60020626567696E0D0A2000746573745F7357
:1005B6006D67416E6A69616E20696E7075743A3353
:1005C6002044335F422D3E46345F422044335F432E
:1005D6002D3E46345F432053434C2D3E50315F3110
:1005E600205344412D3E50315F300D0A2000746582
:1005F60073745F736D67416E6A69616E20626567C9
:10060600696E0D0A2000746573745F41325F31367E
:100616005F31364C454420696E7075743A31094233
:10062600363A41302D3E41302041312D3E41310D8B
:100636000A20004A5032322D3E42365F42204A504E
:1006460032342D3E42365F43202043532D3E4353E2
:10065600310D0A2000746573745F41325F31365F75
:1006660031364C454420626567696E0D0A20007478
:100676006573745F42315F495344313432302069C7
:100686006E7075743A34095245432D3E50315F32CF
:1006960020504C4159452D3E50315F330D0A200004
:1006A600746573745F495344313432302062656730
:1006B600696E0D0A2000746573745F42325F544C94
:1006C6004335343920696E7075743A310D0A20004D
:1006D600434C4B2D3E50315F3220444154412D3E18
:1006E60050315F332043532D3E50315F3420414912
:1006F6004E2D3E46310D0A2000746573745F544CCE
:100706004335343920626567696E0D0A20000D0A8B
:1007160000746573745F42335F444143303833324B
:1007260020696E7075743A342043532D3E4353311D
:1007360020204F55542D3E45315F4354524C0D0AEF
:100746002000746573745F4441433038333220624D
:100756006567696E0D0A2000746573745F42345FC5
:100766004144433038303920696E7075743A320D21
:100776000A2000454F432D3E50315F3220434C4BFB
:100786002D3E50315F332043532D3E43533120419C
:100796004444417E432D3E474E4420494E54302D1D
:1007A6003E46310D0A2000746573745F4144433040
:1007B60038303920626567696E0D0A2000746573EA
:1007C600745F43325F544C4335363120696E707521
:1007D600743A330D0A200044494E2D3E50315F32A3
:1007E6002053434C4B2D3E50315F332043532D3E17
:1007F60050315F34204F55542D3E45315F4354529E
:100806004C0D0A2000746573745F544C43353631C1
:1008160020626567696E0D0A2000746573745F4413
:10082600315F737465704D6F746F7220696E707589
:10083600743A3509412D3E50315F3220422D3E50EB
:10084600315F3320432D3E50315F3420442D3E50DE
:10085600315F350D0A2000746573745F73746570BB
:100866004D6F746F7220626567696E0D0A200074A1
:100876006573745F44335F323463303220696E705F
:1008860075743A310953434C2D3E50315F31205334
:1008960044412D3E50315F300D0A2000746573745B
:1008A6005F323463303220626567696E0D0A20005C
:1008B600323463303220676F6F640D0A20003234A1
:1008C600633032206572726F720D0A200074657390
:1008D600745F44335F50434620696E7075743A32D4
:1008E600202053434C2D3E50315F31205344412D3F
:1008F6003E50315F300D0A2000746573745F5043BB
:100906004620626567696E0D0A2000746573745F20
:1009160046385F4453313842323020696E70757400
:100926003A352020544F55542D3E50315F320D0A32
:100936002000746573745F4453313842323020624C
:100946006567696E0D0A2000726573756C745F6465
:100956006973706C61790D0A200072656C61793A71
:1009660000096D6F746F723A000962757A7A657262
:100976003A0009445331384232303A000D0A200019
:1009860048433237335F68633234343A0009636868
:1009960075616E62696E3A00093133383A00094969
:1009A6005344313432303A0009737465704D6F74B4
:1009B6006F723A0031365F31364C45443A00093899
:1009C6006C65643A000938416E6A69616E3A0009DD
:1009D600384B61696775616E3A0032346330323A7A
:1009E60000095043463A0009736D67416E6A6961B2
:1009F6006E3A00544C433534393A00094144433089
:100A06003830393A0009544C433536313A000944F6
:080A16004143303833323A004D
:101E4D00C1010146000A26FC60DAF266B6BEE0FE6C
:011E5D00F68E
:101A4F00121E3A752511E52524FE601A14601C1428
:101A5F00601E14602024F7602124FD602224107082
:101A6F00E512197380E012188680DB1219BD80D63B
:101A7F00121A9680D1121A0680CC120C7180C712DE
:071A8F001D2380C280C0226C
:101D23007BFF7A007926121CB97BFF7A0079501267
:0F1D33001CB97BFF7A00798A121CB9E4F52522CE
:101973007BFF7A0079BA121CB9E4F525E5256411D9
:101983006037E52514601C24FE601D14601F14607D
:1019930021240570E77BFF7A0079D3121CB97525E2
:1019A3001280D91217DD80D412192680CF1218D7CE
:0A19B30080CA12126B80C580C322A7
:101886007BFF7A01791B121CB9E4F525E525641165
:10189600603EE52514601E14602014602214602446
:1018A600146026240570E57BFF7A017933121CB992
:1018B60075251280D71216D580D21214E380CD1268
:1018C6000E9F80C812167780C312137980BE80BC23
:0118D60022EF
:1019BD007BFF7A017976121CB9E4F525E5256411D2
:1019CD006036E52514601B14601D14601F14602122
:1019DD00240470E87BFF7A01798A121CB9752512EF
:1019ED0080DA120DCC80D512154D80D012172D80B6
:0919FD00CB12178580C680C422BC
:101A96007BFF7A0179C0121CB9E4F525E5256411AE
:101AA600602EE52514601814601A14601C24037057
:101AB600EB7BFF7A0179D3121CB975251280DD12F2
:101AC60013FE80D812102980D312183380CE80CC12
:011AD60022ED
:101A06007BFF7A027903121CB9E4F525E5256411FA
:101A16006036E52514601B14601D14601F146021D8
:101A2600240470E87BFF7A027915121CB975251219
:101A360080DA1212F380D5120F6680D012147580E8
:091A4600CB1215B680C680C42243
:1017DD007BFF7A02794B121CB97BFF7A02799F123B
:1017ED001CB9E4F525D297E52564116035E525246E
:1017FD00FA601924F7601914601E240F70E975251D
:10180D00067BFF7A0279DB121CB980DBC29780D789
:10181D0075376875251180CF75376E75251180C7A1
:06182D0080C5E4F5252250
:101926007BFF7A0279EF121CB9D297E4F525E525FB
:1019360064116035E52524FA601924F760191460EE
:101946001E240D70E97525067BFF7A03792C121C7F
:10195600B980DBC29780D775406875251180CF7531
:0D196600406E75251180C780C5E4F525226F
:1018D7007BFF7A037940121CB9D297E4F525E525F9
:1018E70064116035E52524FA601924F7601914603E
:1018F7001E240C70E97525067BFF7A037966121C96
:10190700B980DBC29780D775416875251180CF757F
:0F191700416E75251180C780C5E4F525D2972252
:1016D5007BFF7A03797B121CB97BFF7A037995121C
:1016E5001CB9E4F525E52564116039E52524FA6082
:1016F5001924F7601D146022240F70E97525067BF7
:10170500FF7A0379CD121CB980DB90FFFFE0FFF073
:1017150080D3753D6875251180CB753D6E75251196
:0717250080C380C1E4F5253B
:01172C00229A
:1014E3007BFF7A0379E7121CB97BFF7A0479001238
:1014F3001CB97BFF7A047931121CB9E4F525E52583
:1015030064116042E52524FA601924F7602614600B
:101513002B240E70E97525067BFF7A047957121C7C
:10152300B980DB121D808F09121D427F647E001279
:101533001D0380CA753B6875251180C2753B6E75A6
:09154300251180BA80B8E4F525F9
:01154C00227C
:100E9F007BFF7A04796E121CB97BFF7A0479821278
:100EAF001CB9E4F525E52564117003020F62E525F1
:100EBF0024FA601F24F77003020F4D147003020F02
:100ECF0056240D70E07525067BFF7A0479C0121C3D
:100EDF00B980D2C294C293C2927FF47E01121D03D5
:100EEF00D294D293D2927FF47E01121D03C292C28A
:100EFF0093D2947FF47E01121D03C292D293C294B7
:100F0F007FF47E01121D03C292D293D2947FF47E9E
:100F1F0001121D03D292C293C2947FF47E01121D5F
:100F2F0003D292C293D2947FF47E01121D03D29208
:100F3F00D293C2947FF47E01121D03020EB4753E4C
:100F4F0068752511020EB4753E6E752511020EB42B
:070F5F00020EB4E4F52522A7
:10154D00E4F5257BFF7A0479D2121CB990F003746F
:10155D0080F0E5256411604DE52524FA601924F726
:10156D006031146036240E70E97525067BFF7A0410
:10157D0079F9121CB980DB90F00074AAF07FF47E2B
:10158D0001121D0390F0007455F07FF47E01121DC1
:10159D000380BF75436875251180B775436E75253A
:0915AD001180AF80ADE4F52522A8
:10172D00E4F5257BFF7A05790C121CB990F0037452
:10173D0082F0E5256411603CE52524FA601924F753
:10174D006020146025240D70E97525067BFF7A0550
:10175D007947121CB980DB90F001E0FF90F000F0AA
:10176D0080D075446875251180C875446E75251136
:07177D0080C080BEE4F525E9
:011784002242
:10178500E4F52590F0037482F07BFF7A05795D120C
:101795001CB9E5256411603CE52524FA601924F798
:1017A5006020146025240C70E97525067BFF7A05F9
:1017B5007999121CB980DB90F001E0FF90F000F000
:1017C50080D075456875251180C875456E752511DC
:0717D50080C080BEE4F52591
:0117DC0022EA
:10183300121E9E7BFF7A0579B0121CB9E4F525E5EB
:101843002564116036E52524FA601924F7601A141B
:10185300601F240D70E97525067BFF7A0579F41264
:101863001CB980DB121B5380D67542687525118025
:10187300CE75426E75251180C680C4C288C2A8E4A5
:03188300F5252226
:100DCC007BFF7A06790C121CB97BFF7A06793912F3
:100DDC001CB9E4F52590F0037480F090F000E4F079
:100DEC00A3F0E52564117003020E9BE52524FA603F
:100DFC001F24F77003020E86147003020E8F240F4B
:100E0C0070E07525067BFF7A06795B121CB980D2DF
:100E1C0090F0007401F07FF4FE121D0390F000744A
:100E2C0002F07FF47E01121D0390F0007404F07F39
:100E3C00F47E01121D0390F0007408F07FF47E0123
:100E4C00121D0390F0007410F07FF47E01121D034C
:100E5C0090F0007420F07FF47E01121D0390F000DE
:100E6C007440F07FF47E01121D0390F0007480F04A
:100E7C007FF47E01121D03020DEE7531687525118C
:100E8C00020DEE75316E752511020DEE020DEEE4BC
:030E9C00F5252217
:10167700D2927BFF7A067975121CB9E4F525D293CD
:10168700D292E52564116042E52524FA601B24F710
:10169700602614602B240C70E97525067BFF7A06FB
:1016A70079A6121CB9C29280D9D2937FD07E071235
:1016B7001D03D292C29380CA75326875251180C204
:0E16C70075326E75251180BA80B8E4F52522C3
:1012F3007BFF7A0679BC121CB97BFF7A0679D6127A
:101303001CB9E4F525120006E52564116064E525A2
:1013130024FA601924F7604814604D240F70E975AE
:1013230025067BFF7A0679FF121CB980DB121DF2BA
:101333008F09EF75F005A4FFAEF07C007DFF120C62
:101343000E8F097E00121618121E877BFF7A07790B
:1013530014121CB9E4F5097FE87E03121D0380A86B
:1013630075336875251180A075336E7525118098C6
:051373008096E4F52561
:011378002252
:1015B6007BFF7A077917121CB9E4F525E525641136
:1015C600604CE52524FA601924F760301460352450
:1015D6000C70E97525067BFF7A077948121CB980DD
:1015E600DB90FF00E4F07FF47E01121D0390FF0004
:1015F60074FFF07FF47E01121D0380C07534687598
:10160600251180B875346E75251180B080AEE4F56D
:0216160025228B
:100F6600E4F50BF50CD2A9D2AF438902758CF67560
:100F76008AF6D28C7BFF7A07795E121CB9E4F525D6
:100F86007BFF7A077979121CB9E525641170030293
:100F96001023E52524FA601924F7606C1460722486
:100FA6000E70E67525067BFF7A0779AD121CB980AF
:100FB600D8908000E4F0209216050CE50C7002052E
:100FC6000BD39430E50B947540ECE4F50BF50C90DF
:100FD6008000E0750900F50AAE09FF7C007D051268
:100FE6000BFC7DFF120C0E8E098F0A121618121EAC
:100FF600877BFF7A077914121CB97FF47E01121DD4
:1010060003E4F509F50A8081753568752511020F27
:101016008F75356E752511020F8F020F8FC28CE406
:02102600F525AE
:0110280022A5
:101475007BFF7A0779C3121CB97BFF7A0779DD12E6
:101485001CB9E4F525E5256411604FE52524FA60CE
:101495001924F76033146038240D70E97525067B2F
:1014A500FF7A08790B121CB980DB7F0A7E00121BBC
:1014B500C57FE87E03121D037F5E7E1E121BC57F5E
:1014C500E87E03121D0380BD75366875251180B54C
:0E14D50075366E75251180AD80ABE4F52522CD
:101379007BFF7A087920121CB9E4F525E52564116B
:10138900606FE52524FA601924F760531460582426
:101399000B70E97525067BFF7A08795D121CB98007
:1013A900DBD292C293C294C2957F647E00121D0360
:1013B900C292D293C294C2957F647E00121D03C269
:1013C90092C293D294C2957F647E00121D03C29289
:1013D900C293C294D2957F647E00121D03809D75CD
:1013E9003868752511809575386E752511808D8041
:0513F9008BE4F5252244
:1013FE007BFF7A087975121CB97B167D0A7FA812BD
:10140E001C8DE4F525E52564116058E52524FA6068
:10141E001924F7603C146041240F70E97525067B92
:10142E00FF7A0879A2121CB980DB7D0A7FA8121BF5
:10143E00F9BF160B7BFF7A0879B6121CB980097BAF
:10144E00FF7A0879C4121CB97FE87E03121D03804F
:10145E00B475396875251180AC75396E7525118096
:07146E00A480A2E4F5252291
:10102900E4F5257BFF7A0879D3121CB9E52564110B
:1010390070030210BDE52524FA601924F7606114D4
:101049006066240E70E67525067BFF7A0879FF1223
:101059001CB980D87D027FA2121BF98F09E509C44A
:10106900540F75F00AA4FFE509540F2FF50975F01F
:101079000A84FF7E00121618121E87E50975F00A08
:1010890084AFF07E00121618121E877BFF7A07794B
:1010990014121CB97FE87E03121D03E4F509808C44
:1010A900753A687525118084753A6E752511021097
:0710B90035021035E4F525B6
:0110C000220D
:10126B007BFF7A097911121CB9121E97E4F525E55B
:10127B00256411606FE52524FA601924F760531477
:10128B006058240B70E97525067BFF7A09793812B3
:10129B001CB980DB1211E1120B628E098F0A7C00E4
:1012AB007D0A120C0E121618121E87AE09AF0A7C9D
:1012BB00007D0A120C0EAE04AF05121618121E8713
:1012CB007BFF7A077914121CB97FF47E01121D0380
:1012DB00809D753C687525118095753C6E75251143
:0712EB00808D808BE4F525E6
:0112F20022D9
:100C71007BFF7A09794E121CB97BFF7A09796012E0
:100C81001CB9AF37121E877BFF7A097967121CB92D
:100C9100AF40121E877BFF7A09796F121CB9AF41F1
:100CA100121E877BFF7A097978121CB9AF3C121E9C
:100CB100877BFF7A097982121CB97BFF7A097986D1
:100CC100121CB9AF3D121E877BFF7A097993121C62
:100CD100B9AF3B121E877BFF7A09799E121CB9AF0F
:100CE1003E121E877BFF7A0979A4121CB9AF32121A
:100CF1001E877BFF7A0979AE121CB9AF38121E87A5
:100D01007BFF7A097982121CB97BFF7A0979BA12C1
:100D11001CB9AF31121E877BFF7A0979C4121CB945
:100D2100AF43121E877BFF7A0979CB121CB9AF44FE
:100D3100121E877BFF7A0979D5121CB9AF45121EA5
:100D4100877BFF7A097982121CB97BFF7A0979E0E6
:100D5100121CB9AF39121E877BFF7A0979E7121C81
:100D6100B9AF3A121E877BFF7A0979ED121CB9AF30
:100D710042121E877BFF7A097982121CB97BFF7AA6
:100D81000979F9121CB9AF33121E877BFF7A0A79F0
:100D910001121CB9AF35121E877BFF7A0A790B123B
:100DA1001CB9AF36121E877BFF7A0A7914121CB95F
:100DB100AF34121E877BFF7A097982121CB975251F
:0B0DC100117BFF7A097982121CB92215
:05000600D294C2922219
:101DF200E4FFC294FEEF25E0FFD292309303430743
:091E020001C2920EBE08EED2945A
:011E0B0022B4
:03000B00021EA52D
:031EA500B29332C3
:041BC500AD07AC06B6
:101BC900C294ED7802C333CE33CED8F9FDAC06E426
:101BD900FBC293EC30E303D38001C39292ED25E07D
:0F1BE900FDEC33FCD293000BBB0CE6C293D294FD
:011BF80022CA
:101D8000E4FFC29200D292FEEF25E0FF30940343BD
:0C1D90000701C29300D293000EBE08ECC5
:011D9C002224
:101D4200E4FEC374079EFDEFA805088002C313D802
:0E1D5200FC139295C29600D296000EBE08E4D5
:011D60002260
:0B1E7C00EF1FAC0670011E4C70F62238
:0B1D0300D3EF9400EE64809480401445
:0D1D0E0000750D02750EC7D50EFDD50DFA3E
:081D1B00EF1F70011E80E122A0
:10000E00C2927F4B7E00121E7CD2927F027E001225
:03001E001E7C2223
:101AD700E4FD309210EDC39414500A0D7F017E008F
:101AE700121E7C80EDEDC3941440037F0122E4FDB8
:101AF700209210EDC39414500A0D7F017E00121E30
:0E1B07007C80EDEDC3941440037F01227F002B
:011B150022AD
:101DBA00E4FDC2920000D29200003092030D80022C
:0B1DCA00E4FD7F057E00121E7CAF05CB
:011DD50022EB
:101D9D00E4FBFAF9121DBAA907E9C43333335480B1
:0C1DAD00FFEAC3134FFA0BBB08EAAF02B9
:011DB9002207
:021C2B00AD0703
:101C2D00E4FBFAED5401FAEDC313FDEA600FC29225
:101C3D000000D2927F067E00121E7C800DC2927F24
:0E1C4D00067E00121E7CD29200000BBB08D552
:011C5B002266
:101E5F0012000E121AD77FCC121C2B7F44121C2B90
:011E6F002250
:071E970012000E121AD722FF
:1011E100E4F50FF510F511F512121E5F12000E1243
:1011F1001AD77FCC121C2B7FBE121C2B121D9D8F68
:1012010010121D9D8F0FEFFE7C00E42510F512ECEE
:101211003EF51154F8FEE4EEB4F82CE512F4FFE5C6
:1012210011F4FEEF2401F512E43EF511FCAD12E4D8
:10123100120B29E4FBFA798078BD120A1E8F0E8EFB
:101241000D8D0C8C0B801AAC11AD12E4120B29E43C
:10125100FBFA7980783D120A1E8F0E8E0D8D0C8C53
:091261000BAF0EAE0DAD0CAC0B91
:01126A002261
:101E3A00759850438920758DFD758BFDD28ED2AF72
:031E4A00D2AC22F5
:081E87008F993099FDC29922E8
:101CB9008B0D8A0E890FAB0DAA0EA90F120BE360CB
:101CC90013050FE50F7002050E14F9120BE3FF124D
:051CD9001E8780E222DD
:030023000210C107
:1010C100C0E0C0D0209803021150C298859921E553
:1010D10021B431057525018076E521B432057525E8
:1010E10002806CE521B433057525038062E521B4E6
:1010F10034057525048058E521B43505752505802D
:101101004EE521B436057525068044E521B4370541
:10111100752507803AE521B438057525088030E545
:1011210021B439057525098026E521B461057525A8
:101131000E801CE521B4670575250F8012E521B4E9
:1011410062057525108008E521B47103752511D05C
:04115100D0D0E032E8
:101CDE00D2907F017E00121E7CD2917F017E001277
:101CEE001E7CC2907F017E00121E7CC2917F017EFF
:051CFE0000121E7C2213
:101DD600C2907F017E00121E7CD2917F017E00128E
:0C1DE6001E7CD2907F017E00121E7C2229
:101E0C00C291C2907F017E00121E7CD2917F017E16
:071E1C0000121E7CC291229E
:101E2300C291D2907F017E00121E7CD2917F017EEF
:071E330000121E7CC2912287
:101D6100E4FDD2917F01FE121E7C30900D0DEDD36A
:0E1D7100946440F6121DD67F0122C2917F00BD
:011D7F002241
:021B8F00AD07A0
:101B9100E4FBC291ED5480D394004004D2908002C2
:101BA100C290ED25E0FD7F017E00121E7CD2917F67
:101BB100017E00121E7CC2917F017E00121E7C0BF1
:031BC100BB08D18D
:011BC40022FE
:021C5C00AD07D2
:101C5E00E4FBFAC2917F017E00121E7CD291EA252E
:101C6E00E0FA3090010A7F017E00121E7C0BBB0849
:0E1C7E00E2ED7005121E238003121E0CAF0251
:011C8C002235
:0C1E7000AB05EF2410FD7F70121C8D22CA
:081E8F007D017F70121BF92296
:101C8D008F09A903AA05121CDEAF09121B8F121DA5
:101C9D0061AF02121B8F121D61AF01121B8F121D3E
:0C1CAD0061121DD67F0A7E00121D03226A
:041BF9008D0AAA07A0
:101BFD00E4F9121CDEAF02121B8F121D61AF0A1227
:101C0D001B8F121D61121CDEEA04FF121B8F121DA9
:0D1C1D0061E4FF121C5CA907121DD6AF0187
:011C2A002297
:071E9E00D288D2A8D2AF22C6
:03000300021B16C7
:101B1600C0E0C0F0C083C082C0D075D000C000C095
:101B260001C002C003C004C005C006C007121E8F54
:101B36008F47D007D006D005D004D003D002D001FD
:0D1B4600D000D0D0D082D083D0F0D0E032DB
:10161800AD07AC06ED4C70037F3022ED64014C70D1
:10162800037F3122ED64024C70037F3222ED6403A4
:101638004C70037F3322ED64044C70037F3422ED39
:1016480064054C70037F3522ED64064C70037F36C9
:1016580022ED64074C70037F3722ED64084C700359
:0F1668007F3822ED64094C70037F39227F002206
:101B5300E547D39408500FE54714FF74252547F84C
:101B6300E6FD121E7022E547D39408401EE5479414
:101B730011501874F82547F547C374089547242670
:0C1B8300F8E6FDAF47121E70E4F54722A3
:100A1E00EC4D6011E8497017ED33EC3304600DE4D2
:100A2E00FCFFFEFD22E933E8330470F8020BCE1210
:100A3E000B9958046009E4CC248150062850090211
:100A4E000BD8284003020BD5C0E0EB4A7044B980A6
:100A5E0006D0E0FB020BC4EF4E701CBD8008EBFF0E
:100A6E00EAFEE9FD80EBE98DF0A4FEE5F0020B074E
:100A7E00E9CDF9EAFEEBFFEF89F0A4FCE5F0CE89B3
:100A8E00F0A42EFFE435F0CD89F0A42DFEE435F070
:100A9E008067EF4E7005BD80D780C3EF8BF0A4AC9E
:100AAE00F0EE8BF0A42CFCE435F0F8EF8AF0A42CD9
:100ABE00E5F038FCE433CB8DF0A42CFCE5F03BF8EC
:100ACE00EE8AF0A42CFCE5F038F8E433CF89F0A4DC
:100ADE002CFCE5F038CF3400CE89F0A42FFFE5F0E2
:100AEE003EFEE433C98DF0A42EFEE5F039CD8AF03A
:100AFE00A42FFFE5F03EFEE43DFD33D0E0FB5007B2
:100B0E000BBB000F020BD8EC2CFCEF33FFEE33FEC9
:060B1E00ED33FD020BB0F7
:100B240075F020800E75F010800575F0087D007E4C
:100B3400007F003392D530D503120C63EC334010A0
:100B4400EF33FFEE33FEED33FDEC33FCD5F0ED2255
:0E0B5400E5F0247EA2D513CC92E7CDCEFF2291
:100B6200EDD2E7CD33EC3392D524814006E4FFFE8B
:100B7200FDFC22FCE4CFCECDCC24E0501174FF80EA
:100B8200EDC3CC13CCCD13CDCE13CECF13CF047087
:070B9200F030D5DE020C6318
:100B9900E9D2E7C933E833F892D5EDD2E7CD33ECA2
:070BA90033FC5002B2D5221B
:100BB000EC30E7100FBF000C0EBE00080DBD0004A6
:100BC0000BEB6014A2D5EB13FCED92E7FD2274FF52
:100BD000FCFDFEFF22E480F8A2D574FF13FC7D80AB
:030BE000E480EFBF
:0300000002115595
:0C115500787FE4F6D8FD75814702119CFC
:100BE300BB010689828A83E0225002E722BBFE0210
:090BF300E32289828A83E4932243
:100BFC00EF8DF0A4A8F0CF8CF0A428CE8DF0A42E0D
:020C0C00FE22C6
:100C0E00BC000BBE0029EF8DF084FFADF022E4CCCA
:100C1E00F875F008EF2FFFEE33FEEC33FCEE9DEC93
:100C2E00984005FCEE9DFE0FD5F0E9E4CEFD22EDD9
:100C3E00F8F5F0EE8420D21CFEADF075F008EF2F23
:100C4E00FFED33FD4007985006D5F0F222C398FD14
:050C5E000FD5F0EA22B1
:0E0C6300C3E49FFFE49EFEE49DFDE49CFC22A2
:10116100021A4FE493A3F8E493A34003F68001F23B
:1011710008DFF48029E493A3F85407240CC8C3338F
:10118100C4540F4420C8834004F456800146F6DF5E
:10119100E4800B0102040810204080901E4DE47E83
:1011A100019360BCA3FF543F30E509541FFEE49353
:1011B100A360010ECF54C025E060A840B8E493A31A
:1011C100FAE493A3F8E493A3C8C582C8CAC583CA45
:1011D100F0A3C8C582C8CAC583CADFE9DEE780BEFD
:011E5E000083
:00000001FF